{
  "_format": "hh3-artifact-1",
  "contractName": "PredictionMarket",
  "sourceName": "contracts/PredictionMarket.sol",
  "abi": [
    {
      "inputs": [
        {
          "internalType": "address[]",
          "name": "_arbitrators",
          "type": "address[]"
        },
        {
          "internalType": "address",
          "name": "owner",
          "type": "address"
        }
      ],
      "stateMutability": "nonpayable",
      "type": "constructor"
    },
    {
      "anonymous": false,
      "inputs": [
        {
          "indexed": false,
          "internalType": "address",
          "name": "newArbitrator",
          "type": "address"
        },
        {
          "indexed": false,
          "internalType": "bool",
          "name": "status",
          "type": "bool"
        }
      ],
      "name": "ArbitratorChanged",
      "type": "event"
    },
    {
      "anonymous": false,
      "inputs": [
        {
          "indexed": false,
          "internalType": "uint256",
          "name": "marketId",
          "type": "uint256"
        },
        {
          "indexed": false,
          "internalType": "address",
          "name": "bettor",
          "type": "address"
        },
        {
          "indexed": false,
          "internalType": "bool",
          "name": "betsYes",
          "type": "bool"
        },
        {
          "indexed": false,
          "internalType": "uint256",
          "name": "amount",
          "type": "uint256"
        }
      ],
      "name": "BetPlaced",
      "type": "event"
    },
    {
      "anonymous": false,
      "inputs": [
        {
          "indexed": false,
          "internalType": "uint256",
          "name": "marketId",
          "type": "uint256"
        },
        {
          "indexed": false,
          "internalType": "address",
          "name": "closedBy",
          "type": "address"
        },
        {
          "indexed": false,
          "internalType": "enum PredictionMarket.Outcome",
          "name": "outcome",
          "type": "uint8"
        }
      ],
      "name": "MarketClosed",
      "type": "event"
    },
    {
      "anonymous": false,
      "inputs": [
        {
          "indexed": false,
          "internalType": "uint256",
          "name": "marketId",
          "type": "uint256"
        },
        {
          "indexed": false,
          "internalType": "address",
          "name": "creator",
          "type": "address"
        },
        {
          "indexed": false,
          "internalType": "string",
          "name": "description",
          "type": "string"
        },
        {
          "indexed": false,
          "internalType": "uint256",
          "name": "resolutionTime",
          "type": "uint256"
        }
      ],
      "name": "MarketCreated",
      "type": "event"
    },
    {
      "anonymous": false,
      "inputs": [
        {
          "indexed": false,
          "internalType": "uint256",
          "name": "marketId",
          "type": "uint256"
        },
        {
          "indexed": false,
          "internalType": "address",
          "name": "votedBy",
          "type": "address"
        },
        {
          "indexed": false,
          "internalType": "bool",
          "name": "vote",
          "type": "bool"
        }
      ],
      "name": "MarketResolving",
      "type": "event"
    },
    {
      "anonymous": false,
      "inputs": [
        {
          "indexed": false,
          "internalType": "uint256",
          "name": "marketId",
          "type": "uint256"
        },
        {
          "indexed": false,
          "internalType": "address",
          "name": "bettor",
          "type": "address"
        },
        {
          "indexed": false,
          "internalType": "uint256",
          "name": "amount",
          "type": "uint256"
        },
        {
          "indexed": false,
          "internalType": "string",
          "name": "description",
          "type": "string"
        }
      ],
      "name": "PayoutClaimed",
      "type": "event"
    },
    {
      "inputs": [
        {
          "internalType": "address",
          "name": "_address",
          "type": "address"
        }
      ],
      "name": "addArbitrator",
      "outputs": [],
      "stateMutability": "nonpayable",
      "type": "function"
    },
    {
      "inputs": [
        {
          "internalType": "uint256",
          "name": "_marketId",
          "type": "uint256"
        },
        {
          "internalType": "address",
          "name": "_bettor",
          "type": "address"
        }
      ],
      "name": "calculatePayout",
      "outputs": [
        {
          "internalType": "uint256",
          "name": "",
          "type": "uint256"
        }
      ],
      "stateMutability": "view",
      "type": "function"
    },
    {
      "inputs": [
        {
          "internalType": "uint256",
          "name": "_marketId",
          "type": "uint256"
        }
      ],
      "name": "claimPayout",
      "outputs": [],
      "stateMutability": "nonpayable",
      "type": "function"
    },
    {
      "inputs": [
        {
          "internalType": "uint256",
          "name": "_marketId",
          "type": "uint256"
        }
      ],
      "name": "closeMarket",
      "outputs": [],
      "stateMutability": "nonpayable",
      "type": "function"
    },
    {
      "inputs": [
        {
          "internalType": "string",
          "name": "_description",
          "type": "string"
        },
        {
          "internalType": "uint256",
          "name": "_resolutionTime",
          "type": "uint256"
        }
      ],
      "name": "createMarket",
      "outputs": [],
      "stateMutability": "nonpayable",
      "type": "function"
    },
    {
      "inputs": [],
      "name": "getMarketCount",
      "outputs": [
        {
          "internalType": "uint256",
          "name": "_marketCount",
          "type": "uint256"
        }
      ],
      "stateMutability": "view",
      "type": "function"
    },
    {
      "inputs": [
        {
          "internalType": "uint256",
          "name": "_marketId",
          "type": "uint256"
        }
      ],
      "name": "getMarketDetails",
      "outputs": [
        {
          "internalType": "address",
          "name": "creator",
          "type": "address"
        },
        {
          "internalType": "string",
          "name": "description",
          "type": "string"
        },
        {
          "internalType": "enum PredictionMarket.MarketStatus",
          "name": "status",
          "type": "uint8"
        },
        {
          "internalType": "enum PredictionMarket.Outcome",
          "name": "outcome",
          "type": "uint8"
        },
        {
          "internalType": "uint256",
          "name": "resolutionTime",
          "type": "uint256"
        },
        {
          "internalType": "uint256",
          "name": "totalYesBets",
          "type": "uint256"
        },
        {
          "internalType": "uint256",
          "name": "totalNoBets",
          "type": "uint256"
        },
        {
          "internalType": "uint256",
          "name": "totalYesVotes",
          "type": "uint256"
        },
        {
          "internalType": "uint256",
          "name": "totalNoVotes",
          "type": "uint256"
        },
        {
          "internalType": "uint256",
          "name": "currentTime",
          "type": "uint256"
        }
      ],
      "stateMutability": "view",
      "type": "function"
    },
    {
      "inputs": [
        {
          "internalType": "uint256",
          "name": "_marketId",
          "type": "uint256"
        }
      ],
      "name": "getMarketOutcome",
      "outputs": [
        {
          "internalType": "enum PredictionMarket.Outcome",
          "name": "outcome",
          "type": "uint8"
        }
      ],
      "stateMutability": "view",
      "type": "function"
    },
    {
      "inputs": [],
      "name": "getOwner",
      "outputs": [
        {
          "internalType": "address",
          "name": "",
          "type": "address"
        }
      ],
      "stateMutability": "view",
      "type": "function"
    },
    {
      "inputs": [
        {
          "internalType": "uint256",
          "name": "_marketId",
          "type": "uint256"
        },
        {
          "internalType": "address",
          "name": "_user",
          "type": "address"
        }
      ],
      "name": "getUserBets",
      "outputs": [
        {
          "internalType": "uint256",
          "name": "yesAmount",
          "type": "uint256"
        },
        {
          "internalType": "uint256",
          "name": "noAmount",
          "type": "uint256"
        }
      ],
      "stateMutability": "view",
      "type": "function"
    },
    {
      "inputs": [
        {
          "internalType": "address",
          "name": "",
          "type": "address"
        }
      ],
      "name": "isArbitrator",
      "outputs": [
        {
          "internalType": "bool",
          "name": "",
          "type": "bool"
        }
      ],
      "stateMutability": "view",
      "type": "function"
    },
    {
      "inputs": [],
      "name": "marketCountl",
      "outputs": [
        {
          "internalType": "uint256",
          "name": "",
          "type": "uint256"
        }
      ],
      "stateMutability": "view",
      "type": "function"
    },
    {
      "inputs": [
        {
          "internalType": "uint256",
          "name": "",
          "type": "uint256"
        }
      ],
      "name": "markets",
      "outputs": [
        {
          "internalType": "address",
          "name": "creator",
          "type": "address"
        },
        {
          "internalType": "string",
          "name": "description",
          "type": "string"
        },
        {
          "internalType": "enum PredictionMarket.MarketStatus",
          "name": "status",
          "type": "uint8"
        },
        {
          "internalType": "enum PredictionMarket.Outcome",
          "name": "outcome",
          "type": "uint8"
        },
        {
          "internalType": "uint256",
          "name": "resolutionTime",
          "type": "uint256"
        },
        {
          "internalType": "uint256",
          "name": "totalYesBets",
          "type": "uint256"
        },
        {
          "internalType": "uint256",
          "name": "totalNoBets",
          "type": "uint256"
        },
        {
          "internalType": "uint256",
          "name": "totalYesVotes",
          "type": "uint256"
        },
        {
          "internalType": "uint256",
          "name": "totalNoVotes",
          "type": "uint256"
        }
      ],
      "stateMutability": "view",
      "type": "function"
    },
    {
      "inputs": [],
      "name": "ownerAddress",
      "outputs": [
        {
          "internalType": "address",
          "name": "",
          "type": "address"
        }
      ],
      "stateMutability": "view",
      "type": "function"
    },
    {
      "inputs": [
        {
          "internalType": "uint256",
          "name": "_marketId",
          "type": "uint256"
        },
        {
          "internalType": "bool",
          "name": "_prediction",
          "type": "bool"
        }
      ],
      "name": "placeBet",
      "outputs": [],
      "stateMutability": "payable",
      "type": "function"
    },
    {
      "inputs": [
        {
          "internalType": "address",
          "name": "_address",
          "type": "address"
        }
      ],
      "name": "removeArbitrator",
      "outputs": [],
      "stateMutability": "nonpayable",
      "type": "function"
    },
    {
      "inputs": [
        {
          "internalType": "uint256",
          "name": "_marketId",
          "type": "uint256"
        },
        {
          "internalType": "bool",
          "name": "_outcome",
          "type": "bool"
        }
      ],
      "name": "voteMarketResult",
      "outputs": [],
      "stateMutability": "nonpayable",
      "type": "function"
    }
  ],
  "bytecode": "0x608060405234801561000f575f5ffd5b50604051611fcf380380611fcf83398101604081905261002e91610100565b600180546001600160a01b0319166001600160a01b0383161790555f5b82518110156100a457600160025f85848151811061006b5761006b6101dc565b6020908102919091018101516001600160a01b031682528101919091526040015f20805460ff191691151591909117905560010161004b565b5050600180546001600160a01b03165f908152600260205260409020805460ff19169091179055506101f0565b634e487b7160e01b5f52604160045260245ffd5b80516001600160a01b03811681146100fb575f5ffd5b919050565b5f5f60408385031215610111575f5ffd5b82516001600160401b03811115610126575f5ffd5b8301601f81018513610136575f5ffd5b80516001600160401b0381111561014f5761014f6100d1565b604051600582901b90603f8201601f191681016001600160401b038111828210171561017d5761017d6100d1565b60405291825260208184018101929081018884111561019a575f5ffd5b6020850194505b838510156101c0576101b2856100e5565b8152602094850194016101a1565b5094506101d392505050602084016100e5565b90509250929050565b634e487b7160e01b5f52603260045260245ffd5b611dd2806101fd5f395ff3fe6080604052600436106100fa575f3560e01c80639f6bd2a911610092578063b726be7f11610062578063b726be7f146102cc578063d1145f10146102eb578063f4c1585214610317578063fa744dd314610336578063fd69f3c21461036a575f5ffd5b80639f6bd2a914610206578063ae41809514610244578063b06c1ba314610263578063b1283e7714610298575f5ffd5b80638a69614e116100cd5780638a69614e146101965780638f84aa09146101b5578063973ad270146101d45780639ed9c74d146101f3575f5ffd5b806301fabd75146100fe578063499b25db1461011f578063883c84c114610146578063893d20e814610165575b5f5ffd5b348015610109575f5ffd5b5061011d610118366004611827565b61037d565b005b34801561012a575f5ffd5b506101335f5481565b6040519081526020015b60405180910390f35b348015610151575f5ffd5b5061011d61016036600461185b565b6104cf565b348015610170575f5ffd5b506001546001600160a01b03165b6040516001600160a01b03909116815260200161013d565b3480156101a1575f5ffd5b5061011d6101b0366004611910565b610651565b3480156101c0575f5ffd5b5060015461017e906001600160a01b031681565b3480156101df575f5ffd5b5061011d6101ee366004611827565b6108f1565b61011d610201366004611927565b610a3a565b348015610211575f5ffd5b50610234610220366004611827565b60026020525f908152604090205460ff1681565b604051901515815260200161013d565b34801561024f575f5ffd5b5061011d61025e366004611910565b610cdb565b34801561026e575f5ffd5b5061028261027d366004611910565b610f50565b60405161013d9a999897969594939291906119b7565b3480156102a3575f5ffd5b506102b76102b2366004611910565b61108f565b60405161013d99989796959493929190611a2e565b3480156102d7575f5ffd5b506101336102e6366004611a9f565b61116e565b3480156102f6575f5ffd5b5061030a610305366004611910565b6113bd565b60405161013d9190611ac9565b348015610322575f5ffd5b5061011d610331366004611927565b611407565b348015610341575f5ffd5b50610355610350366004611a9f565b611730565b6040805192835260208301919091520161013d565b348015610375575f5ffd5b505f54610133565b6001546001600160a01b031633146103b05760405162461bcd60e51b81526004016103a790611adc565b60405180910390fd5b6001600160a01b0381166104065760405162461bcd60e51b815260206004820152601a60248201527f496e76616c69642061726269747261746f72206164647265737300000000000060448201526064016103a7565b6001600160a01b0381165f9081526002602052604090205460ff161561046e5760405162461bcd60e51b815260206004820181905260248201527f4164647265737320697320616c726561647920616e2061726269747261746f7260448201526064016103a7565b6001600160a01b0381165f81815260026020908152604091829020805460ff191660019081179091558251938452908301527f64a89974bcaf4db23729c2fbbc06beff46bdc7dec4e8ef3c176d9e7b1361481891015b60405180910390a150565b5f82511161051f5760405162461bcd60e51b815260206004820152601b60248201527f4465736372697074696f6e2063616e6e6f7420626520656d707479000000000060448201526064016103a7565b42811161057c5760405162461bcd60e51b815260206004820152602560248201527f5265736f6c7574696f6e2074696d65206d75737420626520696e207468652066604482015264757475726560d81b60648201526084016103a7565b6105bb6040518060400160405280601881526020017f43757272656e7420626c6f636b2074696d657374616d703a000000000000000081525042611798565b5f805490806105c983611b32565b90915550505f8054815260036020526040902080546001600160a01b03191633178155600181016105fa8482611bce565b5060028101805460ff19169055600381018290555f546040517f03e783e31593f59fda73a59d05e2525d610a533995cce4d4750186c3b6bf80bb9161064491339087908790611c89565b60405180910390a1505050565b5f8111801561066157505f548111155b61067d5760405162461bcd60e51b81526004016103a790611cc3565b60405163b726be7f60e01b8152600481018290523360248201525f90309063b726be7f90604401602060405180830381865afa1580156106bf573d5f5f3e3d5ffd5b505050506040513d601f19601f820116820180604052508101906106e39190611cee565b90505f811161072a5760405162461bcd60e51b81526020600482015260136024820152724e6f207061796f757420617661696c61626c6560681b60448201526064016103a7565b8047101561077a5760405162461bcd60e51b815260206004820152601d60248201527f496e73756666696369656e7420636f6e74726163742062616c616e636500000060448201526064016103a7565b5f8281526003602052604090206001600282810154610100900460ff16908111156107a7576107a7611987565b036107c257335f9081526006820160205260408120556107f8565b60028082810154610100900460ff16908111156107e1576107e1611987565b036107f857335f9081526007820160205260408120555b6040515f90339084908381818185875af1925050503d805f8114610837576040519150601f19603f3d011682016040523d82523d5f602084013e61083c565b606091505b50509050806108855760405162461bcd60e51b815260206004820152601560248201527411985a5b1959081d1bc81cd95b99081c185e5bdd5d605a1b60448201526064016103a7565b60408051858152336020820152908101849052608060608201819052600e908201526d14185e5bdd5d0810db185a5b595960921b60a08201527f82dcfbfa357c6d2f4c1c05619fd849a4f67864c1ee6999cb7641a0af4939476c9060c00160405180910390a150505050565b6001546001600160a01b0316331461091b5760405162461bcd60e51b81526004016103a790611adc565b6001600160a01b0381166109715760405162461bcd60e51b815260206004820152601a60248201527f496e76616c69642061726269747261746f72206164647265737300000000000060448201526064016103a7565b6001600160a01b0381165f9081526002602052604090205460ff166109e45760405162461bcd60e51b8152602060048201526024808201527f4164647265737320697320616c7265616479206e6f7420616e2061726269747260448201526330ba37b960e11b60648201526084016103a7565b6001600160a01b0381165f818152600260209081526040808320805460ff191690558051938452908301919091527f64a89974bcaf4db23729c2fbbc06beff46bdc7dec4e8ef3c176d9e7b1361481891016104c4565b5f82118015610a4a57505f548211155b610a665760405162461bcd60e51b81526004016103a790611cc3565b5f8281526003602052604081209060028083015460ff1690811115610a8d57610a8d611987565b14610ada5760405162461bcd60e51b815260206004820152601e60248201527f4d61726b6574206973206e6f74206f70656e20666f722062657474696e67000060448201526064016103a7565b80600301544210610b2d5760405162461bcd60e51b815260206004820152601860248201527f42657474696e6720706572696f642068617320656e646564000000000000000060448201526064016103a7565b5f3411610b885760405162461bcd60e51b8152602060048201526024808201527f42657420616d6f756e74206d7573742062652067726561746572207468616e206044820152637a65726f60e01b60648201526084016103a7565b60018215151480610b97575081155b610bd85760405162461bcd60e51b815260206004820152601260248201527124b73b30b634b210383932b234b1ba34b7b760711b60448201526064016103a7565b34333111610c1f5760405162461bcd60e51b8152602060048201526014602482015273496e73756666696369656e742062616c616e636560601b60448201526064016103a7565b8115610c685734816004015f828254610c389190611d05565b9091555050335f90815260068201602052604081208054349290610c5d908490611d05565b90915550610c949050565b34816005015f828254610c7b9190611d05565b9091555050335f90815260078201602052604090203490555b60408051848152336020820152831515918101919091523460608201527f4af71b021e799c62c158bd54636ca8da2fa26115a21a2dc6efe486ec104fd15f90608001610644565b5f81118015610ceb57505f548111155b610d075760405162461bcd60e51b81526004016103a790611cc3565b5f81815260036020526040902080546001600160a01b0316331480610d3f5750335f9081526002602052604090205460ff1615156001145b610db15760405162461bcd60e51b815260206004820152603d60248201527f4f6e6c7920746865206d61726b65742063726561746f72206f7220616e20617260448201527f6269747261746f722063616e20636c6f736520746865206d61726b657400000060648201526084016103a7565b60028181015460ff1681811115610dca57610dca611987565b14610e265760405162461bcd60e51b815260206004820152602660248201527f4d61726b6574206d75737420626520696e20746865207265736f6c76696e672060448201526573746174757360d01b60648201526084016103a7565b6003810154610e3790610e10611d05565b421015610e905760405162461bcd60e51b815260206004820152602160248201527f436c6f737572652074696d6520686173206e6f74206265656e207265616368656044820152601960fa1b60648201526084016103a7565b60028101805460ff19166001179055600981015460088201541115610ecd576002810180546001919061ff001916610100835b0217905550610f00565b806008015481600901541115610ef2576002818101805461ff00191661010083610ec3565b60028101805461ff00191690555b7f991af0febb51dee8021b3c80ec4a755f8a0990403af11052e3f2865ed8afed5d82338360020160019054906101000a900460ff16604051610f4493929190611d18565b60405180910390a15050565b5f60605f5f5f5f5f5f5f5f5f8b118015610f6b57505f548b11155b610f875760405162461bcd60e51b81526004016103a790611cc3565b5f8b81526003602081905260409091208054600282015492820154600483015460058401546008850154600986015460018701805497986001600160a01b0390971697909660ff808216976101009092041695909490939092909142908990610fef90611b4a565b80601f016020809104026020016040519081016040528092919081815260200182805461101b90611b4a565b80156110665780601f1061103d57610100808354040283529160200191611066565b820191905f5260205f20905b81548152906001019060200180831161104957829003601f168201915b505050505098509a509a509a509a509a509a509a509a509a509a50509193959799509193959799565b60036020525f9081526040902080546001820180546001600160a01b0390921692916110ba90611b4a565b80601f01602080910402602001604051908101604052809291908181526020018280546110e690611b4a565b80156111315780601f1061110857610100808354040283529160200191611131565b820191905f5260205f20905b81548152906001019060200180831161111457829003601f168201915b5050505060028301546003840154600485015460058601546008870154600990970154959660ff8086169761010090960416955092939192909189565b5f5f8311801561117f57505f548311155b61119b5760405162461bcd60e51b81526004016103a790611cc3565b5f838152600360205260409020600160028083015460ff16908111156111c3576111c3611987565b146112105760405162461bcd60e51b815260206004820152601960248201527f4d61726b6574206973207374696c6c207265736f6c76696e670000000000000060448201526064016103a7565b6001600160a01b0383165f90815260068201602052604090205415158061124f57506001600160a01b0383165f90815260078201602052604090205415155b61129b5760405162461bcd60e51b815260206004820181905260248201527f596f7520646f206e6f74206861766520616e79206f6e676f696e67206265747360448201526064016103a7565b5f6001600283810154610100900460ff16908111156112bc576112bc611987565b036112e157506001600160a01b0383165f908152600682016020526040902054611321565b60028083810154610100900460ff169081111561130057611300611987565b0361132157506001600160a01b0383165f9081526007820160205260409020545b5f6001600284810154610100900460ff169081111561134257611342611987565b14611351578260050154611357565b82600401545b90505f6001600285810154610100900460ff169081111561137a5761137a611987565b1461138957836004015461138f565b83600501545b90508161139c8285611d45565b6113a69190611d5c565b6113b09084611d05565b9450505050505b92915050565b5f5f821180156113ce57505f548211155b6113ea5760405162461bcd60e51b81526004016103a790611cc3565b505f90815260036020526040902060020154610100900460ff1690565b5f8211801561141757505f548211155b6114335760405162461bcd60e51b81526004016103a790611cc3565b5f82815260036020526040902080546001600160a01b031633148061146b5750335f9081526002602052604090205460ff1615156001145b6114dd5760405162461bcd60e51b815260206004820152603f60248201527f4f6e6c7920746865206d61726b65742063726561746f72206f7220616e20617260448201527f6269747261746f722063616e207265736f6c766520746865206d61726b65740060648201526084016103a7565b335f908152600a8201602052604090205460ff16156115575760405162461bcd60e51b815260206004820152603060248201527f596f75206861766520616c72656164792063617374656420796f757220766f7460448201526f19481a5b881d1a1a5cc81b585c9ad95d60821b60648201526084016103a7565b600160028083015460ff169081111561157257611572611987565b036115db5760405162461bcd60e51b815260206004820152603360248201527f4d61726b65742068617320636c6f7365642c20796f752063616e206e6f206c6f6044820152726e676572206361737420796f757220766f746560681b60648201526084016103a7565b806003015442101561163b5760405162461bcd60e51b8152602060048201526024808201527f5265736f6c7574696f6e2074696d6520686173206e6f74206265656e2072656160448201526318da195960e21b60648201526084016103a7565b6001821515148061164a575081155b6116885760405162461bcd60e51b815260206004820152600f60248201526e496e76616c6964206f7574636f6d6560881b60448201526064016103a7565b6002818101805460ff191690911790558115156001036116bd57600881018054905f6116b383611b32565b91905055506116d4565b600981018054905f6116ce83611b32565b91905055505b335f818152600a83016020908152604091829020805460ff19166001179055815186815290810192909252831515908201527f726441a022d949743a4f3999ccccfec03a98463e78f1672f94fc9a14eebb61a790606001610644565b5f5f5f8411801561174257505f548411155b61175e5760405162461bcd60e51b81526004016103a790611cc3565b50505f9182526003602090815260408084206001600160a01b03939093168452600683018252808420546007909301909152909120549091565b6117dd82826040516024016117ae929190611d7b565b60408051601f198184030181529190526020810180516001600160e01b0316632d839cb360e21b1790526117e1565b5050565b6117ea816117ed565b50565b5f6a636f6e736f6c652e6c6f6790505f5f835160208501845afa505050565b80356001600160a01b0381168114611822575f5ffd5b919050565b5f60208284031215611837575f5ffd5b6118408261180c565b9392505050565b634e487b7160e01b5f52604160045260245ffd5b5f5f6040838503121561186c575f5ffd5b823567ffffffffffffffff811115611882575f5ffd5b8301601f81018513611892575f5ffd5b803567ffffffffffffffff8111156118ac576118ac611847565b604051601f8201601f19908116603f0116810167ffffffffffffffff811182821017156118db576118db611847565b6040528181528282016020018710156118f2575f5ffd5b816020840160208301375f6020928201830152969401359450505050565b5f60208284031215611920575f5ffd5b5035919050565b5f5f60408385031215611938575f5ffd5b823591506020830135801515811461194e575f5ffd5b809150509250929050565b5f81518084528060208401602086015e5f602082860101526020601f19601f83011685010191505092915050565b634e487b7160e01b5f52602160045260245ffd5b600381106117ea57634e487b7160e01b5f52602160045260245ffd5b6001600160a01b038b168152610140602082018190525f906119db9083018c611959565b90506119e68a61199b565b8960408301526119f58961199b565b6060820198909852608081019690965260a086019490945260c085019290925260e0840152610100830152610120909101529392505050565b6001600160a01b038a168152610120602082018190525f90611a529083018b611959565b9050611a5d8961199b565b886040830152611a6c8861199b565b8760608301528660808301528560a08301528460c08301528360e0830152826101008301529a9950505050505050505050565b5f5f60408385031215611ab0575f5ffd5b82359150611ac06020840161180c565b90509250929050565b60208101611ad68361199b565b91905290565b60208082526022908201527f4f6e6c79206f776e65722063616e20706572666f726d2074686973206163746960408201526137b760f11b606082015260800190565b634e487b7160e01b5f52601160045260245ffd5b5f60018201611b4357611b43611b1e565b5060010190565b600181811c90821680611b5e57607f821691505b602082108103611b7c57634e487b7160e01b5f52602260045260245ffd5b50919050565b601f821115611bc957805f5260205f20601f840160051c81016020851015611ba75750805b601f840160051c820191505b81811015611bc6575f8155600101611bb3565b50505b505050565b815167ffffffffffffffff811115611be857611be8611847565b611bfc81611bf68454611b4a565b84611b82565b6020601f821160018114611c2e575f8315611c175750848201515b5f19600385901b1c1916600184901b178455611bc6565b5f84815260208120601f198516915b82811015611c5d5787850151825560209485019460019092019101611c3d565b5084821015611c7a57868401515f19600387901b60f8161c191681555b50505050600190811b01905550565b8481526001600160a01b03841660208201526080604082018190525f90611cb290830185611959565b905082606083015295945050505050565b602080825260119082015270125b9d985b1a59081b585c9ad95d081251607a1b604082015260600190565b5f60208284031215611cfe575f5ffd5b5051919050565b808201808211156113b7576113b7611b1e565b8381526001600160a01b038316602082015260608101611d378361199b565b826040830152949350505050565b80820281158282048414176113b7576113b7611b1e565b5f82611d7657634e487b7160e01b5f52601260045260245ffd5b500490565b604081525f611d8d6040830185611959565b9050826020830152939250505056fea2646970667358221220fd91d48793707591b687906f03c2d7ce01b40828fc7ef1df7b636a3de5bfde9664736f6c634300081c0033",
  "linkReferences": {},
  "deployedLinkReferences": {},
  "immutableReferences": {},
  "inputSourceName": "project/contracts/PredictionMarket.sol",
  "buildInfoId": "solc-0_8_28-6bb7c6bd6865abb9fb8b28b856995f4873f12a15"
}